{
  "contractName": "ReLeaf",
  "abi": [
    {
      "inputs": [],
      "stateMutability": "nonpayable",
      "type": "constructor"
    },
    {
      "anonymous": false,
      "inputs": [
        {
          "indexed": true,
          "internalType": "address",
          "name": "owner",
          "type": "address"
        },
        {
          "indexed": true,
          "internalType": "address",
          "name": "spender",
          "type": "address"
        },
        {
          "indexed": false,
          "internalType": "uint256",
          "name": "value",
          "type": "uint256"
        }
      ],
      "name": "Approval",
      "type": "event"
    },
    {
      "anonymous": false,
      "inputs": [
        {
          "indexed": true,
          "internalType": "address",
          "name": "previousOwner",
          "type": "address"
        },
        {
          "indexed": true,
          "internalType": "address",
          "name": "newOwner",
          "type": "address"
        }
      ],
      "name": "OwnershipTransferred",
      "type": "event"
    },
    {
      "anonymous": false,
      "inputs": [
        {
          "indexed": true,
          "internalType": "address",
          "name": "from",
          "type": "address"
        },
        {
          "indexed": true,
          "internalType": "address",
          "name": "to",
          "type": "address"
        },
        {
          "indexed": false,
          "internalType": "uint256",
          "name": "value",
          "type": "uint256"
        }
      ],
      "name": "Transfer",
      "type": "event"
    },
    {
      "inputs": [],
      "name": "_taxFee",
      "outputs": [
        {
          "internalType": "uint256",
          "name": "",
          "type": "uint256"
        }
      ],
      "stateMutability": "view",
      "type": "function",
      "constant": true
    },
    {
      "inputs": [
        {
          "internalType": "address",
          "name": "owner",
          "type": "address"
        },
        {
          "internalType": "address",
          "name": "spender",
          "type": "address"
        }
      ],
      "name": "allowance",
      "outputs": [
        {
          "internalType": "uint256",
          "name": "",
          "type": "uint256"
        }
      ],
      "stateMutability": "view",
      "type": "function",
      "constant": true
    },
    {
      "inputs": [
        {
          "internalType": "address",
          "name": "spender",
          "type": "address"
        },
        {
          "internalType": "uint256",
          "name": "amount",
          "type": "uint256"
        }
      ],
      "name": "approve",
      "outputs": [
        {
          "internalType": "bool",
          "name": "",
          "type": "bool"
        }
      ],
      "stateMutability": "nonpayable",
      "type": "function"
    },
    {
      "inputs": [
        {
          "internalType": "address",
          "name": "account",
          "type": "address"
        }
      ],
      "name": "balanceOf",
      "outputs": [
        {
          "internalType": "uint256",
          "name": "",
          "type": "uint256"
        }
      ],
      "stateMutability": "view",
      "type": "function",
      "constant": true
    },
    {
      "inputs": [],
      "name": "daiInstance",
      "outputs": [
        {
          "internalType": "contract IERC20",
          "name": "",
          "type": "address"
        }
      ],
      "stateMutability": "view",
      "type": "function",
      "constant": true
    },
    {
      "inputs": [
        {
          "internalType": "address",
          "name": "spender",
          "type": "address"
        },
        {
          "internalType": "uint256",
          "name": "subtractedValue",
          "type": "uint256"
        }
      ],
      "name": "decreaseAllowance",
      "outputs": [
        {
          "internalType": "bool",
          "name": "",
          "type": "bool"
        }
      ],
      "stateMutability": "nonpayable",
      "type": "function"
    },
    {
      "inputs": [
        {
          "internalType": "address",
          "name": "spender",
          "type": "address"
        },
        {
          "internalType": "uint256",
          "name": "addedValue",
          "type": "uint256"
        }
      ],
      "name": "increaseAllowance",
      "outputs": [
        {
          "internalType": "bool",
          "name": "",
          "type": "bool"
        }
      ],
      "stateMutability": "nonpayable",
      "type": "function"
    },
    {
      "inputs": [],
      "name": "manager",
      "outputs": [
        {
          "internalType": "address",
          "name": "",
          "type": "address"
        }
      ],
      "stateMutability": "view",
      "type": "function",
      "constant": true
    },
    {
      "inputs": [],
      "name": "name",
      "outputs": [
        {
          "internalType": "string",
          "name": "",
          "type": "string"
        }
      ],
      "stateMutability": "view",
      "type": "function",
      "constant": true
    },
    {
      "inputs": [],
      "name": "owner",
      "outputs": [
        {
          "internalType": "address",
          "name": "",
          "type": "address"
        }
      ],
      "stateMutability": "view",
      "type": "function",
      "constant": true
    },
    {
      "inputs": [],
      "name": "priceCurve",
      "outputs": [
        {
          "internalType": "uint256",
          "name": "",
          "type": "uint256"
        }
      ],
      "stateMutability": "view",
      "type": "function",
      "constant": true
    },
    {
      "inputs": [
        {
          "internalType": "uint256",
          "name": "",
          "type": "uint256"
        }
      ],
      "name": "proposals",
      "outputs": [
        {
          "internalType": "address",
          "name": "walletAddress",
          "type": "address"
        },
        {
          "internalType": "uint256",
          "name": "voteCount",
          "type": "uint256"
        },
        {
          "internalType": "string",
          "name": "name",
          "type": "string"
        },
        {
          "internalType": "uint256",
          "name": "amount",
          "type": "uint256"
        }
      ],
      "stateMutability": "view",
      "type": "function",
      "constant": true
    },
    {
      "inputs": [],
      "name": "renounceOwnership",
      "outputs": [],
      "stateMutability": "nonpayable",
      "type": "function"
    },
    {
      "inputs": [],
      "name": "symbol",
      "outputs": [
        {
          "internalType": "string",
          "name": "",
          "type": "string"
        }
      ],
      "stateMutability": "view",
      "type": "function",
      "constant": true
    },
    {
      "inputs": [],
      "name": "tSupply",
      "outputs": [
        {
          "internalType": "uint256",
          "name": "",
          "type": "uint256"
        }
      ],
      "stateMutability": "view",
      "type": "function",
      "constant": true
    },
    {
      "inputs": [],
      "name": "totalSupply",
      "outputs": [
        {
          "internalType": "uint256",
          "name": "",
          "type": "uint256"
        }
      ],
      "stateMutability": "view",
      "type": "function",
      "constant": true
    },
    {
      "inputs": [
        {
          "internalType": "address",
          "name": "recipient",
          "type": "address"
        },
        {
          "internalType": "uint256",
          "name": "amount",
          "type": "uint256"
        }
      ],
      "name": "transfer",
      "outputs": [
        {
          "internalType": "bool",
          "name": "",
          "type": "bool"
        }
      ],
      "stateMutability": "nonpayable",
      "type": "function"
    },
    {
      "inputs": [
        {
          "internalType": "address",
          "name": "sender",
          "type": "address"
        },
        {
          "internalType": "address",
          "name": "recipient",
          "type": "address"
        },
        {
          "internalType": "uint256",
          "name": "amount",
          "type": "uint256"
        }
      ],
      "name": "transferFrom",
      "outputs": [
        {
          "internalType": "bool",
          "name": "",
          "type": "bool"
        }
      ],
      "stateMutability": "nonpayable",
      "type": "function"
    },
    {
      "inputs": [
        {
          "internalType": "address",
          "name": "newOwner",
          "type": "address"
        }
      ],
      "name": "transferOwnership",
      "outputs": [],
      "stateMutability": "nonpayable",
      "type": "function"
    },
    {
      "inputs": [
        {
          "internalType": "address",
          "name": "",
          "type": "address"
        }
      ],
      "name": "voters",
      "outputs": [
        {
          "internalType": "bool",
          "name": "canVote",
          "type": "bool"
        },
        {
          "internalType": "address",
          "name": "delegate",
          "type": "address"
        },
        {
          "internalType": "uint256",
          "name": "vote",
          "type": "uint256"
        },
        {
          "internalType": "uint256",
          "name": "dispersalRound",
          "type": "uint256"
        }
      ],
      "stateMutability": "view",
      "type": "function",
      "constant": true
    },
    {
      "inputs": [],
      "name": "decimals",
      "outputs": [
        {
          "internalType": "uint8",
          "name": "",
          "type": "uint8"
        }
      ],
      "stateMutability": "view",
      "type": "function",
      "constant": true
    },
    {
      "inputs": [],
      "name": "viewTotalSupply",
      "outputs": [
        {
          "internalType": "uint256",
          "name": "",
          "type": "uint256"
        }
      ],
      "stateMutability": "view",
      "type": "function",
      "constant": true
    },
    {
      "inputs": [],
      "name": "showDaiPool",
      "outputs": [
        {
          "internalType": "uint256",
          "name": "",
          "type": "uint256"
        }
      ],
      "stateMutability": "view",
      "type": "function",
      "constant": true
    },
    {
      "inputs": [],
      "name": "showUserBalance",
      "outputs": [
        {
          "internalType": "uint256",
          "name": "",
          "type": "uint256"
        }
      ],
      "stateMutability": "view",
      "type": "function",
      "constant": true
    },
    {
      "inputs": [],
      "name": "showContractBalance",
      "outputs": [
        {
          "internalType": "uint256",
          "name": "",
          "type": "uint256"
        }
      ],
      "stateMutability": "view",
      "type": "function",
      "constant": true
    },
    {
      "inputs": [
        {
          "internalType": "address",
          "name": "addy",
          "type": "address"
        }
      ],
      "name": "showDaiBalance",
      "outputs": [
        {
          "internalType": "uint256",
          "name": "",
          "type": "uint256"
        }
      ],
      "stateMutability": "view",
      "type": "function",
      "constant": true
    },
    {
      "inputs": [],
      "name": "getCurrentPrice",
      "outputs": [
        {
          "internalType": "uint64",
          "name": "",
          "type": "uint64"
        }
      ],
      "stateMutability": "view",
      "type": "function",
      "constant": true
    },
    {
      "inputs": [
        {
          "internalType": "int128",
          "name": "x",
          "type": "int128"
        }
      ],
      "name": "lnOfAmount",
      "outputs": [
        {
          "internalType": "int128",
          "name": "",
          "type": "int128"
        }
      ],
      "stateMutability": "view",
      "type": "function",
      "constant": true
    },
    {
      "inputs": [
        {
          "internalType": "bool",
          "name": "isBuy",
          "type": "bool"
        },
        {
          "internalType": "uint256",
          "name": "amount",
          "type": "uint256"
        }
      ],
      "name": "priceBuySellTokens",
      "outputs": [
        {
          "internalType": "uint64",
          "name": "",
          "type": "uint64"
        }
      ],
      "stateMutability": "view",
      "type": "function",
      "constant": true
    },
    {
      "inputs": [],
      "name": "viewVendorFunds",
      "outputs": [
        {
          "internalType": "uint256",
          "name": "",
          "type": "uint256"
        }
      ],
      "stateMutability": "view",
      "type": "function",
      "constant": true
    },
    {
      "inputs": [
        {
          "internalType": "uint256",
          "name": "amount",
          "type": "uint256"
        }
      ],
      "name": "buyRLF",
      "outputs": [],
      "stateMutability": "nonpayable",
      "type": "function"
    },
    {
      "inputs": [
        {
          "internalType": "uint256",
          "name": "amount",
          "type": "uint256"
        }
      ],
      "name": "sellRLF",
      "outputs": [],
      "stateMutability": "payable",
      "type": "function",
      "payable": true
    },
    {
      "inputs": [],
      "name": "dispersalAmount",
      "outputs": [
        {
          "internalType": "uint256",
          "name": "",
          "type": "uint256"
        }
      ],
      "stateMutability": "view",
      "type": "function",
      "constant": true
    },
    {
      "inputs": [],
      "name": "dispersalCount",
      "outputs": [
        {
          "internalType": "uint256",
          "name": "",
          "type": "uint256"
        }
      ],
      "stateMutability": "view",
      "type": "function",
      "constant": true
    },
    {
      "inputs": [],
      "name": "checkVotingRights",
      "outputs": [
        {
          "internalType": "bool",
          "name": "",
          "type": "bool"
        }
      ],
      "stateMutability": "view",
      "type": "function",
      "constant": true
    },
    {
      "inputs": [
        {
          "internalType": "uint256",
          "name": "proposal",
          "type": "uint256"
        }
      ],
      "name": "checkVotes",
      "outputs": [
        {
          "internalType": "uint256",
          "name": "",
          "type": "uint256"
        }
      ],
      "stateMutability": "view",
      "type": "function",
      "constant": true
    },
    {
      "inputs": [
        {
          "internalType": "uint256",
          "name": "propNum",
          "type": "uint256"
        }
      ],
      "name": "vote",
      "outputs": [],
      "stateMutability": "nonpayable",
      "type": "function"
    },
    {
      "inputs": [],
      "name": "propWinner",
      "outputs": [
        {
          "internalType": "uint256",
          "name": "",
          "type": "uint256"
        }
      ],
      "stateMutability": "view",
      "type": "function",
      "constant": true
    },
    {
      "inputs": [
        {
          "internalType": "address",
          "name": "_address",
          "type": "address"
        },
        {
          "internalType": "string",
          "name": "_name",
          "type": "string"
        }
      ],
      "name": "createProposal",
      "outputs": [],
      "stateMutability": "nonpayable",
      "type": "function"
    },
    {
      "inputs": [
        {
          "internalType": "uint256",
          "name": "propNum",
          "type": "uint256"
        },
        {
          "internalType": "uint256",
          "name": "amount",
          "type": "uint256"
        }
      ],
      "name": "awardProposal",
      "outputs": [],
      "stateMutability": "nonpayable",
      "type": "function"
    }
  ],
  "bytecode": "0x60806040526001600660006101000a81548173ffffffffffffffffffffffffffffffffffffffff021916908373ffffffffffffffffffffffffffffffffffffffff160217905550600160085560006009556006600a60006101000a81548160ff021916908360ff1602179055506200008560016014620003a960201b620023451760201c565b600b60006101000a8154816fffffffffffffffffffffffffffffffff0219169083600f0b6fffffffffffffffffffffffffffffffff160217905550620000d760016200047b60201b620024081760201c565b600b60106101000a8154816fffffffffffffffffffffffffffffffff0219169083600f0b6fffffffffffffffffffffffffffffffff1602179055506200012960146200047b60201b620024081760201c565b600c60006101000a8154816fffffffffffffffffffffffffffffffff0219169083600f0b6fffffffffffffffffffffffffffffffff1602179055506200017c6101906200047b60201b620024081760201c565b600c60106101000a8154816fffffffffffffffffffffffffffffffff0219169083600f0b6fffffffffffffffffffffffffffffffff160217905550620001d0620f42406200047b60201b620024081760201c565b600d60006101000a8154816fffffffffffffffffffffffffffffffff0219169083600f0b6fffffffffffffffffffffffffffffffff160217905550600f60105560405180604001604052806000815260200160008152506013600082015181600001556020820151816001015550503480156200024c57600080fd5b506040518060400160405280600681526020017f52654c65616600000000000000000000000000000000000000000000000000008152506040518060400160405280600381526020017f524c4600000000000000000000000000000000000000000000000000000000008152508160039080519060200190620002d192919062000763565b508060049080519060200190620002ea92919062000763565b5050506200030d620003016200049f60201b60201c565b620004a760201b60201c565b33600760006101000a81548173ffffffffffffffffffffffffffffffffffffffff021916908373ffffffffffffffffffffffffffffffffffffffff160217905550735592ec0cfb4dbc12d3ab100b257153436a1f0fea600a60016101000a81548173ffffffffffffffffffffffffffffffffffffffff021916908373ffffffffffffffffffffffffffffffffffffffff160217905550620008d6565b600080821415620003b957600080fd5b600080841215620003cf57836000039350600190505b6000831215620003e457826000039250801590505b6000620003f885856200056d60201b60201c565b905081156200043f576f80000000000000000000000000000000816fffffffffffffffffffffffffffffffff1611156200043157600080fd5b806000039250505062000475565b6f7fffffffffffffffffffffffffffffff816fffffffffffffffffffffffffffffffff1611156200046f57600080fd5b80925050505b92915050565b6000677fffffffffffffff8211156200049357600080fd5b604082901b9050919050565b600033905090565b6000600560009054906101000a900473ffffffffffffffffffffffffffffffffffffffff16905081600560006101000a81548173ffffffffffffffffffffffffffffffffffffffff021916908373ffffffffffffffffffffffffffffffffffffffff1602179055508173ffffffffffffffffffffffffffffffffffffffff168173ffffffffffffffffffffffffffffffffffffffff167f8be0079c531659141344cd1fd0a4f28419497f9722a3daafe3b4186f6b6457e060405160405180910390a35050565b6000808214156200057d57600080fd5b600077ffffffffffffffffffffffffffffffffffffffffffffffff8411620005bf5782604085901b81620005b657620005b562000813565b5b0490506200073b565b600060c09050600060c086901c90506401000000008110620005e957602081901c90506020820191505b6201000081106200060257601081901c90506010820191505b61010081106200061a57600881901c90506008820191505b601081106200063157600481901c90506004820191505b600481106200064857600281901c90506002820191505b6002811062000658576001820191505b600160bf830360018703901c018260ff0387901b816200067d576200067c62000813565b5b0492506fffffffffffffffffffffffffffffffff8311156200069e57600080fd5b6000608086901c8402905060006fffffffffffffffffffffffffffffffff871685029050600060c089901c9050600060408a901b905082811015620006e4576001820391505b8281039050608084901b92508281101562000700576001820391505b8281039050608084901c82146200071c576200071b62000842565b5b8881816200072f576200072e62000813565b5b04870196505050505050505b6fffffffffffffffffffffffffffffffff8111156200075957600080fd5b8091505092915050565b8280546200077190620008a0565b90600052602060002090601f016020900481019282620007955760008555620007e1565b82601f10620007b057805160ff1916838001178555620007e1565b82800160010185558215620007e1579182015b82811115620007e0578251825591602001919060010190620007c3565b5b509050620007f09190620007f4565b5090565b5b808211156200080f576000816000905550600101620007f5565b5090565b7f4e487b7100000000000000000000000000000000000000000000000000000000600052601260045260246000fd5b7f4e487b7100000000000000000000000000000000000000000000000000000000600052600160045260246000fd5b7f4e487b7100000000000000000000000000000000000000000000000000000000600052602260045260246000fd5b60006002820490506001821680620008b957607f821691505b60208210811415620008d057620008cf62000871565b5b50919050565b6147e080620008e66000396000f3fe60806040526004361061023b5760003560e01c8063901c947f1161012e578063b4ee633c116100ab578063dd62ed3e1161006f578063dd62ed3e146108d8578063e3cd84c514610915578063eb91d37e1461093e578063f2fde38b14610969578063f734eebc146109925761023b565b8063b4ee633c146107ef578063b93cdb7b1461081a578063d435c84614610845578063d72237b014610870578063dd61ca87146108ad5761023b565b8063a9059cbb116100f2578063a9059cbb146106f1578063accb9f731461072e578063acd582351461074a578063b33c755d14610787578063b4c42f37146107c45761023b565b8063901c947f146105f357806393ea49831461061e57806395d89b4114610649578063a3ec138d14610674578063a457c2d7146106b45761023b565b806333084413116101bc578063715018a611610180578063715018a61461051e5780637de1d1641461053557806388958837146105605780638c4cde811461058b5780638da5cb5b146105c85761023b565b80633308441314610423578063395093511461044e5780633b124fe71461048b578063481c6a75146104b657806370a08231146104e15761023b565b80631f4f7d29116102035780631f4f7d291461033c57806323b872dd146103655780632fcce414146103a2578063307b0da7146103cd578063313ce567146103f85761023b565b80630121b93f14610240578063013cf08b1461026957806306fdde03146102a9578063095ea7b3146102d457806318160ddd14610311575b600080fd5b34801561024c57600080fd5b50610267600480360381019061026291906133ae565b6109bb565b005b34801561027557600080fd5b50610290600480360381019061028b91906133ae565b610bcf565b6040516102a094939291906134c4565b60405180910390f35b3480156102b557600080fd5b506102be610cb7565b6040516102cb9190613510565b60405180910390f35b3480156102e057600080fd5b506102fb60048036038101906102f6919061355e565b610d49565b60405161030891906135b9565b60405180910390f35b34801561031d57600080fd5b50610326610d67565b60405161033391906135d4565b60405180910390f35b34801561034857600080fd5b50610363600480360381019061035e9190613724565b610d71565b005b34801561037157600080fd5b5061038c60048036038101906103879190613780565b610ee9565b60405161039991906135b9565b60405180910390f35b3480156103ae57600080fd5b506103b7610fe0565b6040516103c491906135b9565b60405180910390f35b3480156103d957600080fd5b506103e2611039565b6040516103ef91906135d4565b60405180910390f35b34801561040457600080fd5b5061040d611046565b60405161041a91906137ef565b60405180910390f35b34801561042f57600080fd5b5061043861105d565b60405161044591906135d4565b60405180910390f35b34801561045a57600080fd5b506104756004803603810190610470919061355e565b6110c6565b60405161048291906135b9565b60405180910390f35b34801561049757600080fd5b506104a0611172565b6040516104ad91906135d4565b60405180910390f35b3480156104c257600080fd5b506104cb611178565b6040516104d8919061380a565b60405180910390f35b3480156104ed57600080fd5b5061050860048036038101906105039190613825565b61119e565b60405161051591906135d4565b60405180910390f35b34801561052a57600080fd5b506105336111e6565b005b34801561054157600080fd5b5061054a61126e565b60405161055791906135d4565b60405180910390f35b34801561056c57600080fd5b50610575611274565b60405161058291906135d4565b60405180910390f35b34801561059757600080fd5b506105b260048036038101906105ad91906133ae565b6112b5565b6040516105bf91906135d4565b60405180910390f35b3480156105d457600080fd5b506105dd61132d565b6040516105ea919061380a565b60405180910390f35b3480156105ff57600080fd5b50610608611357565b60405161061591906135d4565b60405180910390f35b34801561062a57600080fd5b506106336113fa565b60405161064091906135d4565b60405180910390f35b34801561065557600080fd5b5061065e611400565b60405161066b9190613510565b60405180910390f35b34801561068057600080fd5b5061069b60048036038101906106969190613825565b611492565b6040516106ab9493929190613852565b60405180910390f35b3480156106c057600080fd5b506106db60048036038101906106d6919061355e565b6114ef565b6040516106e891906135b9565b60405180910390f35b3480156106fd57600080fd5b506107186004803603810190610713919061355e565b6115da565b60405161072591906135b9565b60405180910390f35b610748600480360381019061074391906133ae565b6115f8565b005b34801561075657600080fd5b50610771600480360381019061076c91906138c3565b6119c3565b60405161077e9190613926565b60405180910390f35b34801561079357600080fd5b506107ae60048036038101906107a99190613825565b611ab1565b6040516107bb91906135d4565b60405180910390f35b3480156107d057600080fd5b506107d9611b56565b6040516107e691906139a0565b60405180910390f35b3480156107fb57600080fd5b50610804611b7c565b60405161081191906135d4565b60405180910390f35b34801561082657600080fd5b5061082f611b89565b60405161083c91906135d4565b60405180910390f35b34801561085157600080fd5b5061085a611bd0565b60405161086791906135d4565b60405180910390f35b34801561087c57600080fd5b50610897600480360381019061089291906139f4565b611bda565b6040516108a49190613a30565b60405180910390f35b3480156108b957600080fd5b506108c2611c9c565b6040516108cf91906135d4565b60405180910390f35b3480156108e457600080fd5b506108ff60048036038101906108fa9190613a4b565b611d11565b60405161090c91906135d4565b60405180910390f35b34801561092157600080fd5b5061093c60048036038101906109379190613a8b565b611d98565b005b34801561094a57600080fd5b50610953611f7d565b6040516109609190613926565b60405180910390f35b34801561097557600080fd5b50610990600480360381019061098b9190613825565b61203d565b005b34801561099e57600080fd5b506109b960048036038101906109b491906133ae565b612135565b005b6109c3610fe0565b610a02576040517f08c379a00000000000000000000000000000000000000000000000000000000081526004016109f990613b17565b60405180910390fd5b60011515601160003373ffffffffffffffffffffffffffffffffffffffff1673ffffffffffffffffffffffffffffffffffffffff16815260200190815260200160002060000160009054906101000a900460ff16151514610abf576000601160003373ffffffffffffffffffffffffffffffffffffffff1673ffffffffffffffffffffffffffffffffffffffff168152602001908152602001600020905060018160000160006101000a81548160ff021916908315150217905550505b601360000154601160003373ffffffffffffffffffffffffffffffffffffffff1673ffffffffffffffffffffffffffffffffffffffff1681526020019081526020016000206002015414610b48576040517f08c379a0000000000000000000000000000000000000000000000000000000008152600401610b3f90613b83565b60405180910390fd5b80601160003373ffffffffffffffffffffffffffffffffffffffff1673ffffffffffffffffffffffffffffffffffffffff16815260200190815260200160002060010181905550600160128281548110610ba557610ba4613ba3565b5b90600052602060002090600402016001016000828254610bc59190613c01565b9250508190555050565b60128181548110610bdf57600080fd5b90600052602060002090600402016000915090508060000160009054906101000a900473ffffffffffffffffffffffffffffffffffffffff1690806001015490806002018054610c2e90613c86565b80601f0160208091040260200160405190810160405280929190818152602001828054610c5a90613c86565b8015610ca75780601f10610c7c57610100808354040283529160200191610ca7565b820191906000526020600020905b815481529060010190602001808311610c8a57829003601f168201915b5050505050908060030154905084565b606060038054610cc690613c86565b80601f0160208091040260200160405190810160405280929190818152602001828054610cf290613c86565b8015610d3f5780601f10610d1457610100808354040283529160200191610d3f565b820191906000526020600020905b815481529060010190602001808311610d2257829003601f168201915b5050505050905090565b6000610d5d610d5661242b565b8484612433565b6001905092915050565b6000600254905090565b600760009054906101000a900473ffffffffffffffffffffffffffffffffffffffff1673ffffffffffffffffffffffffffffffffffffffff163373ffffffffffffffffffffffffffffffffffffffff1614610e01576040517f08c379a0000000000000000000000000000000000000000000000000000000008152600401610df890613d2a565b60405180910390fd5b600060405180608001604052808473ffffffffffffffffffffffffffffffffffffffff1681526020016000815260200183815260200160008152509050601281908060018154018082558091505060019003906000526020600020906004020160009091909190915060008201518160000160006101000a81548173ffffffffffffffffffffffffffffffffffffffff021916908373ffffffffffffffffffffffffffffffffffffffff160217905550602082015181600101556040820151816002019080519060200190610ed79291906132c1565b50606082015181600301555050505050565b600080600160008673ffffffffffffffffffffffffffffffffffffffff1673ffffffffffffffffffffffffffffffffffffffff1681526020019081526020016000206000610f3561242b565b73ffffffffffffffffffffffffffffffffffffffff1673ffffffffffffffffffffffffffffffffffffffff16815260200190815260200160002054905082811015610fb5576040517f08c379a0000000000000000000000000000000000000000000000000000000008152600401610fac90613dbc565b60405180910390fd5b610fc985610fc161242b565b858403612433565b610fd48585856125fe565b60019150509392505050565b60006103e8600e60003373ffffffffffffffffffffffffffffffffffffffff1673ffffffffffffffffffffffffffffffffffffffff1681526020019081526020016000205411611031576000611034565b60015b905090565b6000601360010154905090565b6000600a60009054906101000a900460ff16905090565b6000600e6000600660009054906101000a900473ffffffffffffffffffffffffffffffffffffffff1673ffffffffffffffffffffffffffffffffffffffff1673ffffffffffffffffffffffffffffffffffffffff16815260200190815260200160002054905090565b60006111686110d361242b565b8484600160006110e161242b565b73ffffffffffffffffffffffffffffffffffffffff1673ffffffffffffffffffffffffffffffffffffffff16815260200190815260200160002060008873ffffffffffffffffffffffffffffffffffffffff1673ffffffffffffffffffffffffffffffffffffffff168152602001908152602001600020546111639190613c01565b612433565b6001905092915050565b60105481565b600760009054906101000a900473ffffffffffffffffffffffffffffffffffffffff1681565b60008060008373ffffffffffffffffffffffffffffffffffffffff1673ffffffffffffffffffffffffffffffffffffffff168152602001908152602001600020549050919050565b6111ee61242b565b73ffffffffffffffffffffffffffffffffffffffff1661120c61132d565b73ffffffffffffffffffffffffffffffffffffffff1614611262576040517f08c379a000000000000000000000000000000000000000000000000000000000815260040161125990613e28565b60405180910390fd5b61126c6000612792565b565b60085481565b60008061128460006009546119c3565b67ffffffffffffffff169050600047905060006112aa838361285890919063ffffffff16565b905080935050505090565b600060016012805490501015611300576040517f08c379a00000000000000000000000000000000000000000000000000000000081526004016112f790613eba565b60405180910390fd5b6012828154811061131457611313613ba3565b5b9060005260206000209060040201600101549050919050565b6000600560009054906101000a900473ffffffffffffffffffffffffffffffffffffffff16905090565b6000600a60019054906101000a900473ffffffffffffffffffffffffffffffffffffffff1673ffffffffffffffffffffffffffffffffffffffff166370a08231306040518263ffffffff1660e01b81526004016113b4919061380a565b602060405180830381865afa1580156113d1573d6000803e3d6000fd5b505050506040513d601f19601f820116820180604052508101906113f59190613eef565b905090565b60095481565b60606004805461140f90613c86565b80601f016020809104026020016040519081016040528092919081815260200182805461143b90613c86565b80156114885780601f1061145d57610100808354040283529160200191611488565b820191906000526020600020905b81548152906001019060200180831161146b57829003601f168201915b5050505050905090565b60116020528060005260406000206000915090508060000160009054906101000a900460ff16908060000160019054906101000a900473ffffffffffffffffffffffffffffffffffffffff16908060010154908060020154905084565b600080600160006114fe61242b565b73ffffffffffffffffffffffffffffffffffffffff1673ffffffffffffffffffffffffffffffffffffffff16815260200190815260200160002060008573ffffffffffffffffffffffffffffffffffffffff1673ffffffffffffffffffffffffffffffffffffffff168152602001908152602001600020549050828110156115bb576040517f08c379a00000000000000000000000000000000000000000000000000000000081526004016115b290613f8e565b60405180910390fd5b6115cf6115c661242b565b85858403612433565b600191505092915050565b60006115ee6115e761242b565b84846125fe565b6001905092915050565b80600954101561163d576040517f08c379a000000000000000000000000000000000000000000000000000000000815260040161163490613ffa565b60405180910390fd5b600061164a6000836119c3565b67ffffffffffffffff16905064e8d4a5100081611667919061401a565b905060006116748261286e565b9050600061168b828461285890919063ffffffff16565b905080600a60019054906101000a900473ffffffffffffffffffffffffffffffffffffffff1673ffffffffffffffffffffffffffffffffffffffff166370a08231306040518263ffffffff1660e01b81526004016116e9919061380a565b602060405180830381865afa158015611706573d6000803e3d6000fd5b505050506040513d601f19601f8201168201806040525081019061172a9190613eef565b101561176b576040517f08c379a0000000000000000000000000000000000000000000000000000000008152600401611762906140c0565b60405180910390fd5b83600e60003373ffffffffffffffffffffffffffffffffffffffff1673ffffffffffffffffffffffffffffffffffffffff1681526020019081526020016000205410156117ed576040517f08c379a00000000000000000000000000000000000000000000000000000000081526004016117e49061412c565b60405180910390fd5b600a60019054906101000a900473ffffffffffffffffffffffffffffffffffffffff1673ffffffffffffffffffffffffffffffffffffffff1663a9059cbb33836040518363ffffffff1660e01b815260040161184a92919061414c565b6020604051808303816000875af1158015611869573d6000803e3d6000fd5b505050506040513d601f19601f8201168201806040525081019061188d919061418a565b6118cc576040517f08c379a00000000000000000000000000000000000000000000000000000000081526004016118c390614203565b60405180910390fd5b83600960008282546118de9190614223565b9250508190555081600e6000600660009054906101000a900473ffffffffffffffffffffffffffffffffffffffff1673ffffffffffffffffffffffffffffffffffffffff1673ffffffffffffffffffffffffffffffffffffffff16815260200190815260200160002060008282546119569190613c01565b9250508190555083600e60003373ffffffffffffffffffffffffffffffffffffffff1673ffffffffffffffffffffffffffffffffffffffff16815260200190815260200160002060008282546119ac9190614223565b925050819055506119bd33856128a0565b50505050565b6000806119d1600954612408565b90506119ec81600d60009054906101000a9004600f0b612a77565b905060006119f984612408565b9050611a1481600d60009054906101000a9004600f0b612a77565b9050600080611a2284611bda565b90506000808815611a5557611a378686612b01565b9350611a4284611bda565b9150611a4e8284612b68565b9050611a79565b611a5f8686612b68565b9350611a6a84611bda565b9150611a768383612b68565b90505b611a9281600d60009054906101000a9004600f0b612bcf565b90506000611a9f82612c3a565b90508097505050505050505092915050565b6000600a60019054906101000a900473ffffffffffffffffffffffffffffffffffffffff1673ffffffffffffffffffffffffffffffffffffffff166370a08231836040518263ffffffff1660e01b8152600401611b0e919061380a565b602060405180830381865afa158015611b2b573d6000803e3d6000fd5b505050506040513d601f19601f82011682018060405250810190611b4f9190613eef565b9050919050565b600a60019054906101000a900473ffffffffffffffffffffffffffffffffffffffff1681565b6000601360000154905090565b6000600e60003373ffffffffffffffffffffffffffffffffffffffff1673ffffffffffffffffffffffffffffffffffffffff16815260200190815260200160002054905090565b6000600954905090565b600080611bf6600c60009054906101000a9004600f0b84612bcf565b9050611c1181600c60109054906101000a9004600f0b612b01565b90506000611c2e600b60009054906101000a9004600f0b85612bcf565b9050611c4981600b60109054906101000a9004600f0b612b01565b90506000611c66600c60009054906101000a9004600f0b86612bcf565b90506000611c7383612c5b565b9050611c7f8482612bcf565b90506000611c8d8284612b68565b90508095505050505050919050565b60008060005b6001601280549050611cb49190614223565b811015611d0957611cd181600183611ccc9190613c01565b612c95565b91506103e7821415611cf657611cf381600183611cee9190613c01565b612db0565b91505b8080611d0190614257565b915050611ca2565b508091505090565b6000600160008473ffffffffffffffffffffffffffffffffffffffff1673ffffffffffffffffffffffffffffffffffffffff16815260200190815260200160002060008373ffffffffffffffffffffffffffffffffffffffff1673ffffffffffffffffffffffffffffffffffffffff16815260200190815260200160002054905092915050565b80600e6000600660009054906101000a900473ffffffffffffffffffffffffffffffffffffffff1673ffffffffffffffffffffffffffffffffffffffff1673ffffffffffffffffffffffffffffffffffffffff168152602001908152602001600020541015611e3c576040517f08c379a0000000000000000000000000000000000000000000000000000000008152600401611e3390614312565b60405180910390fd5b80600e6000600660009054906101000a900473ffffffffffffffffffffffffffffffffffffffff1673ffffffffffffffffffffffffffffffffffffffff1673ffffffffffffffffffffffffffffffffffffffff1681526020019081526020016000206000828254611ead9190614223565b92505081905550600160136000016000828254611eca9190613c01565b925050819055508060136001016000828254611ee69190613c01565b925050819055508060128381548110611f0257611f01613ba3565b5b90600052602060002090600402016003016000828254611f229190613c01565b92505081905550611f793060128481548110611f4157611f40613ba3565b5b906000526020600020906004020160000160009054906101000a900473ffffffffffffffffffffffffffffffffffffffff16836125fe565b5050565b600080611f8b600954612408565b9050611fa681600d60009054906101000a9004600f0b612a77565b90506000611fc3600b60009054906101000a9004600f0b83612bcf565b9050611fde81600b60109054906101000a9004600f0b612b01565b90506000611feb82612c5b565b9050600061200882600c60009054906101000a9004600f0b612bcf565b905061202381600d60009054906101000a9004600f0b612bcf565b9050600061203082612c3a565b9050809550505050505090565b61204561242b565b73ffffffffffffffffffffffffffffffffffffffff1661206361132d565b73ffffffffffffffffffffffffffffffffffffffff16146120b9576040517f08c379a00000000000000000000000000000000000000000000000000000000081526004016120b090613e28565b60405180910390fd5b600073ffffffffffffffffffffffffffffffffffffffff168173ffffffffffffffffffffffffffffffffffffffff161415612129576040517f08c379a0000000000000000000000000000000000000000000000000000000008152600401612120906143a4565b60405180910390fd5b61213281612792565b50565b60006121426001836119c3565b67ffffffffffffffff16905064e8d4a510008161215f919061401a565b9050600061216c8261286e565b9050600a60019054906101000a900473ffffffffffffffffffffffffffffffffffffffff1673ffffffffffffffffffffffffffffffffffffffff166323b872dd3330856040518463ffffffff1660e01b81526004016121cd939291906143c4565b6020604051808303816000875af11580156121ec573d6000803e3d6000fd5b505050506040513d601f19601f82011682018060405250810190612210919061418a565b61224f576040517f08c379a000000000000000000000000000000000000000000000000000000000815260040161224690614447565b60405180910390fd5b82600960008282546122619190613c01565b9250508190555080600e6000600660009054906101000a900473ffffffffffffffffffffffffffffffffffffffff1673ffffffffffffffffffffffffffffffffffffffff1673ffffffffffffffffffffffffffffffffffffffff16815260200190815260200160002060008282546122d99190613c01565b9250508190555082600e60003373ffffffffffffffffffffffffffffffffffffffff1673ffffffffffffffffffffffffffffffffffffffff168152602001908152602001600020600082825461232f9190613c01565b925050819055506123403384612e14565b505050565b60008082141561235457600080fd5b60008084121561236957836000039350600190505b600083121561237d57826000039250801590505b60006123898585612f74565b905081156123cd576f80000000000000000000000000000000816fffffffffffffffffffffffffffffffff1611156123c057600080fd5b8060000392505050612402565b6f7fffffffffffffffffffffffffffffff816fffffffffffffffffffffffffffffffff1611156123fc57600080fd5b80925050505b92915050565b6000677fffffffffffffff82111561241f57600080fd5b604082901b9050919050565b600033905090565b600073ffffffffffffffffffffffffffffffffffffffff168373ffffffffffffffffffffffffffffffffffffffff1614156124a3576040517f08c379a000000000000000000000000000000000000000000000000000000000815260040161249a906144d9565b60405180910390fd5b600073ffffffffffffffffffffffffffffffffffffffff168273ffffffffffffffffffffffffffffffffffffffff161415612513576040517f08c379a000000000000000000000000000000000000000000000000000000000815260040161250a9061456b565b60405180910390fd5b80600160008573ffffffffffffffffffffffffffffffffffffffff1673ffffffffffffffffffffffffffffffffffffffff16815260200190815260200160002060008473ffffffffffffffffffffffffffffffffffffffff1673ffffffffffffffffffffffffffffffffffffffff168152602001908152602001600020819055508173ffffffffffffffffffffffffffffffffffffffff168373ffffffffffffffffffffffffffffffffffffffff167f8c5be1e5ebec7d5bd14f71427d1e84f3dd0314c0f7b2291e5b200ac8c7c3b925836040516125f191906135d4565b60405180910390a3505050565b61265081600e60008673ffffffffffffffffffffffffffffffffffffffff1673ffffffffffffffffffffffffffffffffffffffff1681526020019081526020016000205461285890919063ffffffff16565b600e60008573ffffffffffffffffffffffffffffffffffffffff1673ffffffffffffffffffffffffffffffffffffffff168152602001908152602001600020819055506126e581600e60008573ffffffffffffffffffffffffffffffffffffffff1673ffffffffffffffffffffffffffffffffffffffff1681526020019081526020016000205461315190919063ffffffff16565b600e60008473ffffffffffffffffffffffffffffffffffffffff1673ffffffffffffffffffffffffffffffffffffffff168152602001908152602001600020819055508173ffffffffffffffffffffffffffffffffffffffff168373ffffffffffffffffffffffffffffffffffffffff167fddf252ad1be2c89b69c2b068fc378daa952ba7f163c4a11628f55a4df523b3ef8360405161278591906135d4565b60405180910390a3505050565b6000600560009054906101000a900473ffffffffffffffffffffffffffffffffffffffff16905081600560006101000a81548173ffffffffffffffffffffffffffffffffffffffff021916908373ffffffffffffffffffffffffffffffffffffffff1602179055508173ffffffffffffffffffffffffffffffffffffffff168173ffffffffffffffffffffffffffffffffffffffff167f8be0079c531659141344cd1fd0a4f28419497f9722a3daafe3b4186f6b6457e060405160405180910390a35050565b600081836128669190614223565b905092915050565b60006128996103e861288b6010548561316790919063ffffffff16565b61317d90919063ffffffff16565b9050919050565b600073ffffffffffffffffffffffffffffffffffffffff168273ffffffffffffffffffffffffffffffffffffffff161415612910576040517f08c379a0000000000000000000000000000000000000000000000000000000008152600401612907906145fd565b60405180910390fd5b61291c82600083613193565b60008060008473ffffffffffffffffffffffffffffffffffffffff1673ffffffffffffffffffffffffffffffffffffffff168152602001908152602001600020549050818110156129a2576040517f08c379a00000000000000000000000000000000000000000000000000000000081526004016129999061468f565b60405180910390fd5b8181036000808573ffffffffffffffffffffffffffffffffffffffff1673ffffffffffffffffffffffffffffffffffffffff1681526020019081526020016000208190555081600260008282546129f99190614223565b92505081905550600073ffffffffffffffffffffffffffffffffffffffff168373ffffffffffffffffffffffffffffffffffffffff167fddf252ad1be2c89b69c2b068fc378daa952ba7f163c4a11628f55a4df523b3ef84604051612a5e91906135d4565b60405180910390a3612a7283600084613198565b505050565b60008082600f0b1415612a8957600080fd5b600082600f0b604085600f0b901b81612aa557612aa46146af565b5b0590507fffffffffffffffffffffffffffffffff80000000000000000000000000000000600f0b8112158015612aee57506f7fffffffffffffffffffffffffffffff600f0b8113155b612af757600080fd5b8091505092915050565b60008082600f0b84600f0b0190507fffffffffffffffffffffffffffffffff80000000000000000000000000000000600f0b8112158015612b5557506f7fffffffffffffffffffffffffffffff600f0b8113155b612b5e57600080fd5b8091505092915050565b60008082600f0b84600f0b0390507fffffffffffffffffffffffffffffffff80000000000000000000000000000000600f0b8112158015612bbc57506f7fffffffffffffffffffffffffffffff600f0b8113155b612bc557600080fd5b8091505092915050565b600080604083600f0b85600f0b02901d90507fffffffffffffffffffffffffffffffff80000000000000000000000000000000600f0b8112158015612c2757506f7fffffffffffffffffffffffffffffff600f0b8113155b612c3057600080fd5b8091505092915050565b60008082600f0b1215612c4c57600080fd5b604082600f0b901d9050919050565b60008082600f0b13612c6c57600080fd5b60806fb17217f7d1cf79abc9e3b39803f2f6af612c888461319d565b600f0b02901c9050919050565b60008060128381548110612cac57612cab613ba3565b5b90600052602060002090600402016001015460128581548110612cd257612cd1613ba3565b5b9060005260206000209060040201600101541115612cf257839050612da6565b60128381548110612d0657612d05613ba3565b5b90600052602060002090600402016001015460128481548110612d2c57612d2b613ba3565b5b9060005260206000209060040201600101541115612d4c57829050612da5565b60128381548110612d6057612d5f613ba3565b5b90600052602060002090600402016001015460128581548110612d8657612d85613ba3565b5b9060005260206000209060040201600101541415612da4576103e790505b5b5b8091505092915050565b600060128281548110612dc657612dc5613ba3565b5b90600052602060002090600402016003015460128481548110612dec57612deb613ba3565b5b9060005260206000209060040201600301541115612e0a5781612e0c565b825b905092915050565b600073ffffffffffffffffffffffffffffffffffffffff168273ffffffffffffffffffffffffffffffffffffffff161415612e84576040517f08c379a0000000000000000000000000000000000000000000000000000000008152600401612e7b9061472a565b60405180910390fd5b612e9060008383613193565b8060026000828254612ea29190613c01565b92505081905550806000808473ffffffffffffffffffffffffffffffffffffffff1673ffffffffffffffffffffffffffffffffffffffff1681526020019081526020016000206000828254612ef79190613c01565b925050819055508173ffffffffffffffffffffffffffffffffffffffff16600073ffffffffffffffffffffffffffffffffffffffff167fddf252ad1be2c89b69c2b068fc378daa952ba7f163c4a11628f55a4df523b3ef83604051612f5c91906135d4565b60405180910390a3612f7060008383613198565b5050565b600080821415612f8357600080fd5b600077ffffffffffffffffffffffffffffffffffffffffffffffff8411612fc05782604085901b81612fb857612fb76146af565b5b04905061312a565b600060c09050600060c086901c90506401000000008110612fe957602081901c90506020820191505b62010000811061300157601081901c90506010820191505b610100811061301857600881901c90506008820191505b6010811061302e57600481901c90506004820191505b6004811061304457600281901c90506002820191505b60028110613053576001820191505b600160bf830360018703901c018260ff0387901b81613075576130746146af565b5b0492506fffffffffffffffffffffffffffffffff83111561309557600080fd5b6000608086901c8402905060006fffffffffffffffffffffffffffffffff871685029050600060c089901c9050600060408a901b9050828110156130da576001820391505b8281039050608084901b9250828110156130f5576001820391505b8281039050608084901c821461310e5761310d61474a565b5b88818161311e5761311d6146af565b5b04870196505050505050505b6fffffffffffffffffffffffffffffffff81111561314757600080fd5b8091505092915050565b6000818361315f9190613c01565b905092915050565b60008183613175919061401a565b905092915050565b6000818361318b9190614779565b905092915050565b505050565b505050565b60008082600f0b136131ae57600080fd5b60008083600f0b90506801000000000000000081126131d557604081901d90506040820191505b64010000000081126131ef57602081901d90506020820191505b62010000811261320757601081901d90506010820191505b610100811261321e57600881901d90506008820191505b6010811261323457600481901d90506004820191505b6004811261324a57600281901d90506002820191505b60028112613259576001820191505b60006040808403901b9050600083607f0386600f0b901b9050600067800000000000000090505b60008113156132b4578182029150600060ff83901c905080607f0183901c92508082028401935050600181901d9050613280565b5081945050505050919050565b8280546132cd90613c86565b90600052602060002090601f0160209004810192826132ef5760008555613336565b82601f1061330857805160ff1916838001178555613336565b82800160010185558215613336579182015b8281111561333557825182559160200191906001019061331a565b5b5090506133439190613347565b5090565b5b80821115613360576000816000905550600101613348565b5090565b6000604051905090565b600080fd5b600080fd5b6000819050919050565b61338b81613378565b811461339657600080fd5b50565b6000813590506133a881613382565b92915050565b6000602082840312156133c4576133c361336e565b5b60006133d284828501613399565b91505092915050565b600073ffffffffffffffffffffffffffffffffffffffff82169050919050565b6000613406826133db565b9050919050565b613416816133fb565b82525050565b61342581613378565b82525050565b600081519050919050565b600082825260208201905092915050565b60005b8381101561346557808201518184015260208101905061344a565b83811115613474576000848401525b50505050565b6000601f19601f8301169050919050565b60006134968261342b565b6134a08185613436565b93506134b0818560208601613447565b6134b98161347a565b840191505092915050565b60006080820190506134d9600083018761340d565b6134e6602083018661341c565b81810360408301526134f8818561348b565b9050613507606083018461341c565b95945050505050565b6000602082019050818103600083015261352a818461348b565b905092915050565b61353b816133fb565b811461354657600080fd5b50565b60008135905061355881613532565b92915050565b600080604083850312156135755761357461336e565b5b600061358385828601613549565b925050602061359485828601613399565b9150509250929050565b60008115159050919050565b6135b38161359e565b82525050565b60006020820190506135ce60008301846135aa565b92915050565b60006020820190506135e9600083018461341c565b92915050565b600080fd5b600080fd5b7f4e487b7100000000000000000000000000000000000000000000000000000000600052604160045260246000fd5b6136318261347a565b810181811067ffffffffffffffff821117156136505761364f6135f9565b5b80604052505050565b6000613663613364565b905061366f8282613628565b919050565b600067ffffffffffffffff82111561368f5761368e6135f9565b5b6136988261347a565b9050602081019050919050565b82818337600083830152505050565b60006136c76136c284613674565b613659565b9050828152602081018484840111156136e3576136e26135f4565b5b6136ee8482856136a5565b509392505050565b600082601f83011261370b5761370a6135ef565b5b813561371b8482602086016136b4565b91505092915050565b6000806040838503121561373b5761373a61336e565b5b600061374985828601613549565b925050602083013567ffffffffffffffff81111561376a57613769613373565b5b613776858286016136f6565b9150509250929050565b6000806000606084860312156137995761379861336e565b5b60006137a786828701613549565b93505060206137b886828701613549565b92505060406137c986828701613399565b9150509250925092565b600060ff82169050919050565b6137e9816137d3565b82525050565b600060208201905061380460008301846137e0565b92915050565b600060208201905061381f600083018461340d565b92915050565b60006020828403121561383b5761383a61336e565b5b600061384984828501613549565b91505092915050565b600060808201905061386760008301876135aa565b613874602083018661340d565b613881604083018561341c565b61388e606083018461341c565b95945050505050565b6138a08161359e565b81146138ab57600080fd5b50565b6000813590506138bd81613897565b92915050565b600080604083850312156138da576138d961336e565b5b60006138e8858286016138ae565b92505060206138f985828601613399565b9150509250929050565b600067ffffffffffffffff82169050919050565b61392081613903565b82525050565b600060208201905061393b6000830184613917565b92915050565b6000819050919050565b600061396661396161395c846133db565b613941565b6133db565b9050919050565b60006139788261394b565b9050919050565b600061398a8261396d565b9050919050565b61399a8161397f565b82525050565b60006020820190506139b56000830184613991565b92915050565b600081600f0b9050919050565b6139d1816139bb565b81146139dc57600080fd5b50565b6000813590506139ee816139c8565b92915050565b600060208284031215613a0a57613a0961336e565b5b6000613a18848285016139df565b91505092915050565b613a2a816139bb565b82525050565b6000602082019050613a456000830184613a21565b92915050565b60008060408385031215613a6257613a6161336e565b5b6000613a7085828601613549565b9250506020613a8185828601613549565b9150509250929050565b60008060408385031215613aa257613aa161336e565b5b6000613ab085828601613399565b9250506020613ac185828601613399565b9150509250929050565b7f596f75206d75737420686f6c6420612062616c616e636520746f20766f74652e600082015250565b6000613b01602083613436565b9150613b0c82613acb565b602082019050919050565b60006020820190508181036000830152613b3081613af4565b9050919050565b7f596f75206861766520616c726561647920766f7465642e000000000000000000600082015250565b6000613b6d601783613436565b9150613b7882613b37565b602082019050919050565b60006020820190508181036000830152613b9c81613b60565b9050919050565b7f4e487b7100000000000000000000000000000000000000000000000000000000600052603260045260246000fd5b7f4e487b7100000000000000000000000000000000000000000000000000000000600052601160045260246000fd5b6000613c0c82613378565b9150613c1783613378565b9250827fffffffffffffffffffffffffffffffffffffffffffffffffffffffffffffffff03821115613c4c57613c4b613bd2565b5b828201905092915050565b7f4e487b7100000000000000000000000000000000000000000000000000000000600052602260045260246000fd5b60006002820490506001821680613c9e57607f821691505b60208210811415613cb257613cb1613c57565b5b50919050565b7f596f7520617265206e6f7420616c6c6f77656420746f2063726561746520612060008201527f70726f706f73616c2e0000000000000000000000000000000000000000000000602082015250565b6000613d14602983613436565b9150613d1f82613cb8565b604082019050919050565b60006020820190508181036000830152613d4381613d07565b9050919050565b7f45524332303a207472616e7366657220616d6f756e742065786365656473206160008201527f6c6c6f77616e6365000000000000000000000000000000000000000000000000602082015250565b6000613da6602883613436565b9150613db182613d4a565b604082019050919050565b60006020820190508181036000830152613dd581613d99565b9050919050565b7f4f776e61626c653a2063616c6c6572206973206e6f7420746865206f776e6572600082015250565b6000613e12602083613436565b9150613e1d82613ddc565b602082019050919050565b60006020820190508181036000830152613e4181613e05565b9050919050565b7f546865726520617265206e6f2070726f706f73616c73207269676874206e6f7760008201527f2100000000000000000000000000000000000000000000000000000000000000602082015250565b6000613ea4602183613436565b9150613eaf82613e48565b604082019050919050565b60006020820190508181036000830152613ed381613e97565b9050919050565b600081519050613ee981613382565b92915050565b600060208284031215613f0557613f0461336e565b5b6000613f1384828501613eda565b91505092915050565b7f45524332303a2064656372656173656420616c6c6f77616e63652062656c6f7760008201527f207a65726f000000000000000000000000000000000000000000000000000000602082015250565b6000613f78602583613436565b9150613f8382613f1c565b604082019050919050565b60006020820190508181036000830152613fa781613f6b565b9050919050565b7f496e73756666696369656e7420746f6b656e7320617661696c61626c65000000600082015250565b6000613fe4601d83613436565b9150613fef82613fae565b602082019050919050565b6000602082019050818103600083015261401381613fd7565b9050919050565b600061402582613378565b915061403083613378565b9250817fffffffffffffffffffffffffffffffffffffffffffffffffffffffffffffffff048311821515161561406957614068613bd2565b5b828202905092915050565b7f496e73756666696369656e742066756e647320746f2073656c6c000000000000600082015250565b60006140aa601a83613436565b91506140b582614074565b602082019050919050565b600060208201905081810360008301526140d98161409d565b9050919050565b7f496e73756666696369656e7420746f6b656e7320746f2073656c6c0000000000600082015250565b6000614116601b83613436565b9150614121826140e0565b602082019050919050565b6000602082019050818103600083015261414581614109565b9050919050565b6000604082019050614161600083018561340d565b61416e602083018461341c565b9392505050565b60008151905061418481613897565b92915050565b6000602082840312156141a05761419f61336e565b5b60006141ae84828501614175565b91505092915050565b7f53656c6c207472616e73616374696f6e206661696c6564000000000000000000600082015250565b60006141ed601783613436565b91506141f8826141b7565b602082019050919050565b6000602082019050818103600083015261421c816141e0565b9050919050565b600061422e82613378565b915061423983613378565b92508282101561424c5761424b613bd2565b5b828203905092915050565b600061426282613378565b91507fffffffffffffffffffffffffffffffffffffffffffffffffffffffffffffffff82141561429557614294613bd2565b5b600182019050919050565b7f496e73756666696369656e742062616c616e636520696e2066756e6420706f6f60008201527f6c2e000000000000000000000000000000000000000000000000000000000000602082015250565b60006142fc602283613436565b9150614307826142a0565b604082019050919050565b6000602082019050818103600083015261432b816142ef565b9050919050565b7f4f776e61626c653a206e6577206f776e657220697320746865207a65726f206160008201527f6464726573730000000000000000000000000000000000000000000000000000602082015250565b600061438e602683613436565b915061439982614332565b604082019050919050565b600060208201905081810360008301526143bd81614381565b9050919050565b60006060820190506143d9600083018661340d565b6143e6602083018561340d565b6143f3604083018461341c565b949350505050565b7f5472616e73666572206469646e277420776f726b000000000000000000000000600082015250565b6000614431601483613436565b915061443c826143fb565b602082019050919050565b6000602082019050818103600083015261446081614424565b9050919050565b7f45524332303a20617070726f76652066726f6d20746865207a65726f2061646460008201527f7265737300000000000000000000000000000000000000000000000000000000602082015250565b60006144c3602483613436565b91506144ce82614467565b604082019050919050565b600060208201905081810360008301526144f2816144b6565b9050919050565b7f45524332303a20617070726f766520746f20746865207a65726f20616464726560008201527f7373000000000000000000000000000000000000000000000000000000000000602082015250565b6000614555602283613436565b9150614560826144f9565b604082019050919050565b6000602082019050818103600083015261458481614548565b9050919050565b7f45524332303a206275726e2066726f6d20746865207a65726f2061646472657360008201527f7300000000000000000000000000000000000000000000000000000000000000602082015250565b60006145e7602183613436565b91506145f28261458b565b604082019050919050565b60006020820190508181036000830152614616816145da565b9050919050565b7f45524332303a206275726e20616d6f756e7420657863656564732062616c616e60008201527f6365000000000000000000000000000000000000000000000000000000000000602082015250565b6000614679602283613436565b91506146848261461d565b604082019050919050565b600060208201905081810360008301526146a88161466c565b9050919050565b7f4e487b7100000000000000000000000000000000000000000000000000000000600052601260045260246000fd5b7f45524332303a206d696e7420746f20746865207a65726f206164647265737300600082015250565b6000614714601f83613436565b915061471f826146de565b602082019050919050565b6000602082019050818103600083015261474381614707565b9050919050565b7f4e487b7100000000000000000000000000000000000000000000000000000000600052600160045260246000fd5b600061478482613378565b915061478f83613378565b92508261479f5761479e6146af565b5b82820490509291505056fea26469706673582212204a3707d762d23527113e0e65b80b1cc59194263d3b32b40f007b43510dcdaba064736f6c634300080a0033",
  "immutableReferences": {},
  "source": "// SPDX-License-Identifier: Unlicensed\n\npragma solidity ^0.8.0;\n\nimport \"./ERC20.sol\";\nimport \"./SafeMath.sol\";\nimport \"./Ownable.sol\";\nimport \"./ABDKMath64x64.sol\";\n\ninterface DaiToken is IERC20 {\n    function transferFrom(address sndr, address dst, uint wad) external override returns (bool);\n    function balanceOf(address guy) external override view returns (uint);\n    function transfer(address dst, uint wad) external override returns (bool);\n}\n\ncontract ReLeaf is ERC20, Ownable {\n\n    using SafeMath for uint256;\n    using ABDKMath64x64 for int256;\n    \n    address private daiFundPool = address(1);\n    address public manager;\n    uint256 public priceCurve = 1;\n    uint256 public tSupply = 0;\n    uint8 private _decimals = 6;\n    IERC20 public daiInstance;\n\n\n    //math variables\n    int128 coefficient = ABDKMath64x64.divi(1, 20);\n    int128 one = ABDKMath64x64.fromUInt(1);\n    int128 twenty = ABDKMath64x64.fromUInt(20);\n    int128 fourHundred = ABDKMath64x64.fromUInt(400);\n    int128 tenToSix = ABDKMath64x64.fromUInt(1000000);\n\n\n    mapping(address => uint256) balances;\n\n    mapping(address => mapping (address => uint256)) allowed;\n\n\n    uint256 public _taxFee = 15;\n    \n\n    constructor() ERC20(\"ReLeaf\", \"RLF\") {\n        //sets the creator as the 'manager'\n        manager = msg.sender;\n\n        daiInstance = DaiToken(0x5592EC0cfb4dbc12D3aB100b257153436a1f0FEa);\n\n    }\n\n\n\n\n\n\n    //basic functions\n    \n\n    function _transfer(address _from, address _to, uint256 amount) internal override {\n\n        /** OLD TRANSFER LOGIC\n                uint256 tax = calcFee(amount);\n                //ensures there is enough to transfer including the tax\n                require(balanceOf(_from) >= amount.add(tax));\n                //transfers the fee from the sender to the fund pool and returns the amount\n                uint256 fee = addToFundPool(_from, amount);\n                //deducts the fee from the amount to be transferred\n                amount = amount.sub(fee);\n        **/\n        //makes the transfer\n        balances[_from] = balances[_from].sub(amount);\n        balances[_to] = balances[_to].add(amount);\n        emit Transfer(_from, _to, amount);\n        \n    }\n\n    function decimals() public view override returns (uint8) {\n        return _decimals;\n    }\n\n\n\n\n    //view functions\n\n\n    function viewTotalSupply() public view returns (uint256) {\n        return tSupply;\n    }\n\n    function showDaiPool() public view returns (uint256) {\n        return balances[daiFundPool];\n    }\n\n    function showUserBalance() public view returns (uint256) {\n        return balances[msg.sender];\n    }\n\n    function showContractBalance() public view returns (uint256) {\n        return daiInstance.balanceOf(address(this));\n    }\n\n    function showDaiBalance(address addy) public view returns (uint256) {\n        return daiInstance.balanceOf(addy);\n    }\n    \n\n\n\n    //math functions\n\n    //calculates the current price of the next token using the \"secret sauce\"\n\n    function getCurrentPrice() public view returns (uint64) {\n        //formula 20ln(0.05x + 1)\n        \n        //converts the uint256 to a useable signed int128 fixed point number for calculation\n        int128 priceCurve64 = ABDKMath64x64.fromUInt(tSupply);\n        //massages the number down from 10**6 for use in calculation\n        priceCurve64 = ABDKMath64x64.div(priceCurve64, tenToSix);\n        //calculates the coefficient of the x value\n        int128 x = ABDKMath64x64.mul(coefficient, priceCurve64);\n\n        x = ABDKMath64x64.add(x, one);\n        int128 y = ABDKMath64x64.ln(x);\n        int128 price = ABDKMath64x64.mul(y, twenty);\n        //brings the number back up for display and use\n        price = ABDKMath64x64.mul(price, tenToSix);\n        uint64 price64 = ABDKMath64x64.toUInt(price);\n        return price64;\n    }\n\n    function lnOfAmount(int128 x) public view returns (int128) {\n        //creates 64.64 values for integers\n        //int128 amnt = ABDKMath64x64.fromUInt(amount);\n\n        //creates the necessary parts of the integral function\n        int128 multiplier = ABDKMath64x64.mul(twenty, x);\n        multiplier = ABDKMath64x64.add(multiplier, fourHundred);\n        int128 base = ABDKMath64x64.mul(coefficient, x);\n        base = ABDKMath64x64.add(base, one);\n        int128 b = ABDKMath64x64.mul(twenty, x);\n       \n        //combines pieces of the function\n        int128 log = ABDKMath64x64.ln(base);\n        log = ABDKMath64x64.mul(multiplier, log);\n        int128 poolBalance = ABDKMath64x64.sub(log, b);\n\n        return poolBalance;\n    }\n\n\n    function priceBuySellTokens(bool isBuy, uint256 amount) public view returns (uint64) {\n        //integral is f(x) = (20x + 400)ln(0.05 + 1) - 20x + C\n\n        /**\n         * The input numbers are going to be to 6 decimal places (10**6)\n         * The input number needs to first be divided down,\n         * then used in the formula, and then multiplied back up\n         * \n         * \n         *\n         ***/\n \n        //massages the numbers from 6 decimal places\n        int128 x = ABDKMath64x64.fromUInt(tSupply);\n        x = ABDKMath64x64.div(x, tenToSix);\n        int128 amnt = ABDKMath64x64.fromUInt(amount);\n        amnt = ABDKMath64x64.div(amnt, tenToSix);\n\n        //establishes the pool balances\n        int128 x2; \n        int128 poolBalance = lnOfAmount(x);\n        int128 newPoolBalance; \n\n        int128 price64;\n        if (isBuy) {\n            x2 = ABDKMath64x64.add(x, amnt);\n            newPoolBalance = lnOfAmount(x2);\n            price64 = ABDKMath64x64.sub(newPoolBalance, poolBalance);\n        } else {\n            x2 = ABDKMath64x64.sub(x, amnt);\n            newPoolBalance = lnOfAmount(x2);\n            price64 = ABDKMath64x64.sub(poolBalance, newPoolBalance);\n        }\n        price64 = ABDKMath64x64.mul(price64, tenToSix);\n        uint64 price = ABDKMath64x64.toUInt(price64);\n        return price;\n    }\n\n    \n    function calcFee(uint256 amount) private view returns (uint256) {\n        //sets fee at 1.5%\n        return amount.mul(_taxFee).div(\n            10**3\n        );\n    }\n\n\n    function viewVendorFunds() public view returns (uint256) {\n        uint256 liqFunds = uint256(priceBuySellTokens(false, tSupply));\n        uint256 totalFunds = address(this).balance;\n        uint256 vendorFunds = totalFunds.sub(liqFunds);\n        return vendorFunds;\n    }\n\n\n    //web interface functions\n\n\n\n    function buyRLF(uint256 amount) public {\n        uint256 daiAmount = priceBuySellTokens(true, amount);\n\n        daiAmount = daiAmount * (10**12);\n        /**\n         * The number output by \"priceBuySellTokens\" will be to 6 decimal places\n         * This will increas the value by 10^12 so that it works with the\n         * Dai instance\n         * \n         * **/\n        uint256 fee = calcFee(daiAmount);\n        \n        //adjusts the amount bought by deducting the fee\n        //uint256 purchaseAmnt = daiAmount.add(fee);\n\n        \n        //transfers the adjusted amount from the user to the contract\n\n        require(daiInstance.transferFrom(msg.sender, address(this), daiAmount), \"Transfer didn't work\");\n        //require(success, \"Transaction failed.\");\n        \n\n        //increases the total supply\n        tSupply += amount;\n\n        balances[daiFundPool] += fee;\n\n        //adds the amount to the user's balance\n        balances[msg.sender] += amount;\n\n        //mints the amount to the user's wallet\n        _mint(msg.sender, amount);\n    }\n    \n    function sellRLF(uint256 amount) payable public {\n        require(tSupply >= amount, \"Insufficient tokens available\");\n        uint256 daiAmount = priceBuySellTokens(false, amount);\n\n        daiAmount = daiAmount * (10**12);\n\n        uint256 fee = calcFee(daiAmount);\n\n        //adjusts the amount to sell to keep the fee in the contract balance\n        uint256 sellAmount = daiAmount.sub(fee);\n        \n        //does some checks for a valid transaction\n        \n        require(daiInstance.balanceOf(address(this)) >= sellAmount, \"Insufficient funds to sell\");\n        require(balances[msg.sender] >= amount, \"Insufficient tokens to sell\");\n\n        //transfers the adjusted amount to the user\n        require(daiInstance.transfer(msg.sender, sellAmount), \"Sell transaction failed\");\n        \n        //reduces the total supply by the original amount in RLF\n        tSupply -= amount;\n\n        //\n        balances[daiFundPool] += fee;\n\n        //reduces the balance of the user\n        balances[msg.sender] -= amount;\n\n        //burns the tokens in the user's wallet\n        _burn(msg.sender, amount);\n\n    }\n\n    \n    //voting section\n\n    \n    //data objects\n    struct Voter {\n        bool canVote;\n        address delegate;\n        uint vote;\n        uint dispersalRound;\n    }\n    \n    struct Proposal {\n        address walletAddress;\n        uint voteCount;\n        string name;\n        uint amount;\n    }\n    \n    struct Dispersal {\n        uint count;\n        uint amount;\n    }\n\n    //a list of all the people participating in the vote\n    mapping(address => Voter) public voters;\n    //a list of all available proposals\n    Proposal[] public proposals;\n\n    Dispersal dispersals = Dispersal(\n        {\n            count: 0,\n            amount: 0\n        }\n    );\n    \n\n    //view functions\n\n    function dispersalAmount() public view returns (uint) {\n        return dispersals.amount;\n    }\n\n    function dispersalCount() public view returns (uint) {\n        return dispersals.count;\n    }\n\n    function checkVotingRights() public view returns (bool) {\n        return (balances[msg.sender] > 1000) ? true : false;\n    }\n\n    function checkVotes(uint proposal) public view returns (uint) {\n        require(proposals.length >= 1, \"There are no proposals right now!\");\n        return proposals[proposal].voteCount;\n    }\n\n    \n\n\n\n\n\n    //voting functions\n\n    //the first proposal is reached at 0, since it is stored as an array.\n    function vote(uint propNum) public {\n        //first checks if the user actually has a balance\n        require(checkVotingRights(), \"You must hold a balance to vote.\");\n        //second, checks if the user has ever voted before\n        //and creates an object for them if not\n        if(voters[msg.sender].canVote != true) {\n            Voter storage sender = voters[msg.sender];\n            sender.canVote = true;\n        }\n        //third, checks if the user has already voted on this proposition\n        require(voters[msg.sender].dispersalRound == dispersals.count, \"You have already voted.\");\n        \n\n        voters[msg.sender].vote = propNum;\n        //increases the vote count of the chosen proposal\n        proposals[propNum].voteCount += 1;\n    }\n\n    \n    function countVotes() private {\n        //initiates a vote when community wallet has reached a goal\n        //goals are defined as the daiFundPool reaching at least 10% of the total liquidity\n        if(goalReached()) {\n            uint propWinner = propWinner();\n            uint256 amount = viewVendorFunds();\n            awardProposal(propWinner, amount);\n        }\n\n    }\n\n    function goalReached() internal view returns (bool) {\n        return (address(this).balance.div(10) >= viewVendorFunds()) ? true : false;\n    }\n    \n    function weighVotes(uint a, uint b) internal view returns (uint) {\n        uint prop;\n        if (proposals[a].voteCount > proposals[b].voteCount) {\n            prop = a;\n        } else if (proposals[b].voteCount > proposals[b].voteCount) {\n            prop = b;\n        } else if (proposals[a].voteCount == proposals[b].voteCount) {\n            prop = 999;\n        }\n        return prop;\n    }\n\n\n    function propWinner() public view returns (uint) {\n        uint votedProp;\n        for (uint i = 0; i < proposals.length - 1; i++) {\n            //chooses the prop with the most votes\n            votedProp = weighVotes(i, i + 1);\n            //in the event of a tie, choose the prop with the least amount\n            //already awarded to it\n            if (votedProp == 999) {\n                votedProp = propAwardedLess(i, i + 1);\n            }\n        }\n\n        return votedProp;\n    }\n\n\n\n\n\n\n    //proposal functions\n\n    function createProposal(address _address, string memory _name) public {\n        require(msg.sender == manager, \"You are not allowed to create a proposal.\");\n        Proposal memory newProp = Proposal(\n            {\n            walletAddress: _address,\n            name: _name,\n            voteCount: 0,\n            amount: 0\n            }\n        );\n        proposals.push(newProp);\n        \n    }\n\n    function propAwardedLess(uint a, uint b) internal view returns (uint) {\n        return (proposals[a].amount <= proposals[b].amount) ? a : b;\n    }\n\n    function awardProposal(uint propNum, uint256 amount) public {\n        //distributes the contents of community wallet to the winning vendor\n        //should automatically reward proposal[0] if no votes are cast\n        require(balances[daiFundPool] >= amount, \"Insufficient balance in fund pool.\");\n\n        balances[daiFundPool] -= amount;\n\n        //adds values to keep track of dispersal data\n        dispersals.count += 1;\n        dispersals.amount += amount;\n\n        proposals[propNum].amount += amount;\n        \n        //NOTE: This transfer must be a daiInstance transfer in order to send DAI and not RLF\n        _transfer(address(this), proposals[propNum].walletAddress, amount);\n        \n        \n    }\n    \n\n    \n}",
  "sourcePath": "/Users/citizensnipz/iCloud Drive (Archive)/Documents/development/releaf/releaf_v3/contracts/Releaf.sol",
  "compiler": {
    "name": "solc",
    "version": "0.8.10+commit.fc410830.Emscripten.clang"
  },
  "schemaVersion": "3.4.4",
  "updatedAt": "2022-01-20T18:49:47.130Z",
  "networkType": "ethereum",
  "devdoc": {
    "kind": "dev",
    "methods": {
      "allowance(address,address)": {
        "details": "See {IERC20-allowance}."
      },
      "approve(address,uint256)": {
        "details": "See {IERC20-approve}. Requirements: - `spender` cannot be the zero address."
      },
      "balanceOf(address)": {
        "details": "See {IERC20-balanceOf}."
      },
      "decimals()": {
        "details": "Returns the number of decimals used to get its user representation. For example, if `decimals` equals `2`, a balance of `505` tokens should be displayed to a user as `5.05` (`505 / 10 ** 2`). Tokens usually opt for a value of 18, imitating the relationship between Ether and Wei. This is the value {ERC20} uses, unless this function is overridden; NOTE: This information is only used for _display_ purposes: it in no way affects any of the arithmetic of the contract, including {IERC20-balanceOf} and {IERC20-transfer}."
      },
      "decreaseAllowance(address,uint256)": {
        "details": "Atomically decreases the allowance granted to `spender` by the caller. This is an alternative to {approve} that can be used as a mitigation for problems described in {IERC20-approve}. Emits an {Approval} event indicating the updated allowance. Requirements: - `spender` cannot be the zero address. - `spender` must have allowance for the caller of at least `subtractedValue`."
      },
      "increaseAllowance(address,uint256)": {
        "details": "Atomically increases the allowance granted to `spender` by the caller. This is an alternative to {approve} that can be used as a mitigation for problems described in {IERC20-approve}. Emits an {Approval} event indicating the updated allowance. Requirements: - `spender` cannot be the zero address."
      },
      "name()": {
        "details": "Returns the name of the token."
      },
      "owner()": {
        "details": "Returns the address of the current owner."
      },
      "renounceOwnership()": {
        "details": "Leaves the contract without owner. It will not be possible to call `onlyOwner` functions anymore. Can only be called by the current owner. NOTE: Renouncing ownership will leave the contract without an owner, thereby removing any functionality that is only available to the owner."
      },
      "symbol()": {
        "details": "Returns the symbol of the token, usually a shorter version of the name."
      },
      "totalSupply()": {
        "details": "See {IERC20-totalSupply}."
      },
      "transfer(address,uint256)": {
        "details": "See {IERC20-transfer}. Requirements: - `recipient` cannot be the zero address. - the caller must have a balance of at least `amount`."
      },
      "transferFrom(address,address,uint256)": {
        "details": "See {IERC20-transferFrom}. Emits an {Approval} event indicating the updated allowance. This is not required by the EIP. See the note at the beginning of {ERC20}. Requirements: - `sender` and `recipient` cannot be the zero address. - `sender` must have a balance of at least `amount`. - the caller must have allowance for ``sender``'s tokens of at least `amount`."
      },
      "transferOwnership(address)": {
        "details": "Transfers ownership of the contract to a new account (`newOwner`). Can only be called by the current owner."
      }
    },
    "version": 1
  },
  "userdoc": {
    "kind": "user",
    "methods": {},
    "version": 1
  }
}